{
  "contractName": "Shipping",
  "abi": [
    {
      "anonymous": false,
      "inputs": [
        {
          "indexed": true,
          "internalType": "address",
          "name": "driver",
          "type": "address"
        }
      ],
      "name": "DriverCancel",
      "type": "event"
    },
    {
      "anonymous": false,
      "inputs": [
        {
          "indexed": true,
          "internalType": "address",
          "name": "driver",
          "type": "address"
        }
      ],
      "name": "DriverRequest",
      "type": "event"
    },
    {
      "anonymous": false,
      "inputs": [
        {
          "indexed": true,
          "internalType": "address",
          "name": "driver",
          "type": "address"
        }
      ],
      "name": "DriverSignup",
      "type": "event"
    },
    {
      "anonymous": false,
      "inputs": [
        {
          "indexed": true,
          "internalType": "bytes32",
          "name": "route",
          "type": "bytes32"
        }
      ],
      "name": "Dropoff",
      "type": "event"
    },
    {
      "anonymous": false,
      "inputs": [
        {
          "indexed": true,
          "internalType": "bytes32",
          "name": "route",
          "type": "bytes32"
        }
      ],
      "name": "Pickup",
      "type": "event"
    },
    {
      "anonymous": false,
      "inputs": [
        {
          "indexed": true,
          "internalType": "bytes32",
          "name": "route",
          "type": "bytes32"
        }
      ],
      "name": "RouteRequest",
      "type": "event"
    },
    {
      "anonymous": false,
      "inputs": [
        {
          "indexed": true,
          "internalType": "address",
          "name": "shipment",
          "type": "address"
        }
      ],
      "name": "ShipmentRequest",
      "type": "event"
    },
    {
      "inputs": [
        {
          "internalType": "uint8",
          "name": "origin_lat",
          "type": "uint8"
        },
        {
          "internalType": "uint8",
          "name": "origin_long",
          "type": "uint8"
        },
        {
          "internalType": "uint8",
          "name": "dest_lat",
          "type": "uint8"
        },
        {
          "internalType": "uint8",
          "name": "dest_long",
          "type": "uint8"
        },
        {
          "internalType": "uint8",
          "name": "weight",
          "type": "uint8"
        },
        {
          "internalType": "uint8",
          "name": "height",
          "type": "uint8"
        },
        {
          "internalType": "uint8",
          "name": "width",
          "type": "uint8"
        },
        {
          "internalType": "uint8",
          "name": "length",
          "type": "uint8"
        }
      ],
      "name": "ship_package",
      "outputs": [],
      "stateMutability": "payable",
      "type": "function"
    },
    {
      "inputs": [
        {
          "internalType": "string",
          "name": "password",
          "type": "string"
        }
      ],
      "name": "checkMyDrivingCapacity",
      "outputs": [
        {
          "internalType": "uint8",
          "name": "",
          "type": "uint8"
        }
      ],
      "stateMutability": "view",
      "type": "function"
    },
    {
      "inputs": [
        {
          "internalType": "address",
          "name": "driver",
          "type": "address"
        }
      ],
      "name": "driverAvailable",
      "outputs": [
        {
          "internalType": "bool",
          "name": "",
          "type": "bool"
        }
      ],
      "stateMutability": "view",
      "type": "function"
    },
    {
      "inputs": [],
      "name": "available_to_drive",
      "outputs": [],
      "stateMutability": "nonpayable",
      "type": "function"
    },
    {
      "inputs": [
        {
          "internalType": "uint8",
          "name": "lat",
          "type": "uint8"
        },
        {
          "internalType": "uint8",
          "name": "long",
          "type": "uint8"
        },
        {
          "internalType": "uint8",
          "name": "weight",
          "type": "uint8"
        },
        {
          "internalType": "uint8",
          "name": "height",
          "type": "uint8"
        },
        {
          "internalType": "uint8",
          "name": "width",
          "type": "uint8"
        },
        {
          "internalType": "uint8",
          "name": "length",
          "type": "uint8"
        },
        {
          "internalType": "string",
          "name": "password",
          "type": "string"
        }
      ],
      "name": "signup_to_drive",
      "outputs": [],
      "stateMutability": "payable",
      "type": "function"
    }
  ],
  "bytecode": "0x608060405234801561001057600080fd5b50610f8a806100206000396000f3fe60806040526004361061004a5760003560e01c806389e880fe1461004f57806397b8e045146100b8578063c9ddec25146101c1578063ed8c16501461024e578063f9d6abe714610330575b600080fd5b34801561005b57600080fd5b5061009e6004803603602081101561007257600080fd5b81019080803573ffffffffffffffffffffffffffffffffffffffff169060200190929190505050610347565b604051808215151515815260200191505060405180910390f35b6101bf600480360360e08110156100ce57600080fd5b81019080803560ff169060200190929190803560ff169060200190929190803560ff169060200190929190803560ff169060200190929190803560ff169060200190929190803560ff1690602001909291908035906020019064010000000081111561013957600080fd5b82018360208201111561014b57600080fd5b8035906020019184600183028401116401000000008311171561016d57600080fd5b91908080601f016020809104026020016040519081016040528093929190818152602001838380828437600081840152601f19601f820116905080830192505050505050509192919290505050610467565b005b61024c60048036036101008110156101d857600080fd5b81019080803560ff169060200190929190803560ff169060200190929190803560ff169060200190929190803560ff169060200190929190803560ff169060200190929190803560ff169060200190929190803560ff169060200190929190803560ff169060200190929190505050610843565b005b34801561025a57600080fd5b506103146004803603602081101561027157600080fd5b810190808035906020019064010000000081111561028e57600080fd5b8201836020820111156102a057600080fd5b803590602001918460018302840111640100000000831117156102c257600080fd5b91908080601f016020809104026020016040519081016040528093929190818152602001838380828437600081840152601f19601f820116905080830192505050505050509192919290505050610bc5565b604051808260ff1660ff16815260200191505060405180910390f35b34801561033c57600080fd5b50610345610cdb565b005b600080600360008473ffffffffffffffffffffffffffffffffffffffff1673ffffffffffffffffffffffffffffffffffffffff16815260200190815260200160002060000160009054906101000a900460ff1660ff1611610410576040517f08c379a000000000000000000000000000000000000000000000000000000000815260040180806020018281038252600e8152602001807f6e6f20737563682064726976657200000000000000000000000000000000000081525060200191505060405180910390fd5b600360008373ffffffffffffffffffffffffffffffffffffffff1673ffffffffffffffffffffffffffffffffffffffff16815260200190815260200160002060000160019054906101000a900460ff169050919050565b60008560ff1611801561047d575060008460ff16115b801561048c575060008260ff16115b801561049b575060008360ff16115b61050d576040517f08c379a00000000000000000000000000000000000000000000000000000000081526004018080602001828103825260178152602001807f496e76616c6964206361722064696d656e73696f6e732e00000000000000000081525060200191505060405180910390fd5b6000600360003373ffffffffffffffffffffffffffffffffffffffff1673ffffffffffffffffffffffffffffffffffffffff16815260200190815260200160002060000160009054906101000a900460ff1660ff16146105b8576040517f08c379a0000000000000000000000000000000000000000000000000000000008152600401808060200182810382526024815260200180610f076024913960400191505060405180910390fd5b60008760ff1681600001819055508660ff1681600101819055506000868160000160006101000a81548160ff021916908360ff16021790555060008160000160016101000a81548160ff021916908315150217905550858160000160036101000a81548160ff021916908360ff160217905550838160000160046101000a81548160ff021916908360ff1602179055508181600101600082015481600001556001820154816001015590505080600360003373ffffffffffffffffffffffffffffffffffffffff1673ffffffffffffffffffffffffffffffffffffffff1681526020019081526020016000206000820160009054906101000a900460ff168160000160006101000a81548160ff021916908360ff1602179055506000820160019054906101000a900460ff168160000160016101000a81548160ff0219169083151502179055506000820160029054906101000a900460ff168160000160026101000a81548160ff021916908360ff1602179055506000820160039054906101000a900460ff168160000160036101000a81548160ff021916908360ff1602179055506000820160049054906101000a900460ff168160000160046101000a81548160ff021916908360ff1602179055506001820181600101600082015481600001556001820154816001015550509050508280519060200120600160003373ffffffffffffffffffffffffffffffffffffffff1673ffffffffffffffffffffffffffffffffffffffff168152602001908152602001600020819055503373ffffffffffffffffffffffffffffffffffffffff167f8aaeb40d9e7cba5a027e1138aff22a61061da58020c12be3d416e7f0ad1b52bd60405160405180910390a2505050505050505050565b60008460ff16118015610859575060008360ff16115b8015610868575060008160ff16115b8015610877575060008260ff16115b6108e9576040517f08c379a000000000000000000000000000000000000000000000000000000000815260040180806020018281038252601b8152602001807f496e76616c6964207061636b6167652064696d656e73696f6e732e000000000081525060200191505060405180910390fd5b6000600460003373ffffffffffffffffffffffffffffffffffffffff1673ffffffffffffffffffffffffffffffffffffffff16815260200190815260200160002060000160039054906101000a900460ff1660ff1614610994576040517f08c379a000000000000000000000000000000000000000000000000000000000815260040180806020018281038252602a815260200180610f2b602a913960400191505060405180910390fd5b60008860ff1681600001819055508760ff16816001018190555060008760ff1681600001819055508660ff1681600101819055506000848160000160006101000a81548160ff021916908360ff160217905550858160000160016101000a81548160ff021916908360ff160217905550838160000160026101000a81548160ff021916908360ff160217905550848160000160006101000a81548160ff021916908360ff16021790555080600460003373ffffffffffffffffffffffffffffffffffffffff1673ffffffffffffffffffffffffffffffffffffffff1681526020019081526020016000206000820160009054906101000a900460ff168160000160006101000a81548160ff021916908360ff1602179055506000820160019054906101000a900460ff168160000160016101000a81548160ff021916908360ff1602179055506000820160029054906101000a900460ff168160000160026101000a81548160ff021916908360ff1602179055506000820160039054906101000a900460ff168160000160036101000a81548160ff021916908360ff1602179055506001820181600101600082015481600001556001820154816001015550506003820181600301600082015481600001556001820154816001015550509050503373ffffffffffffffffffffffffffffffffffffffff167f4f68ee90c30694cfd74e5e50641874d566dbfd8084cb114e02b3f91d86b468e260405160405180910390a25050505050505050505050565b6000818080519060200120600160003373ffffffffffffffffffffffffffffffffffffffff1673ffffffffffffffffffffffffffffffffffffffff1681526020019081526020016000205414610c83576040517f08c379a00000000000000000000000000000000000000000000000000000000081526004018080602001828103825260128152602001807f496e636f72726563742050617373776f7264000000000000000000000000000081525060200191505060405180910390fd5b600360003373ffffffffffffffffffffffffffffffffffffffff1673ffffffffffffffffffffffffffffffffffffffff16815260200190815260200160002060000160009054906101000a900460ff16915050919050565b6000600360003373ffffffffffffffffffffffffffffffffffffffff1673ffffffffffffffffffffffffffffffffffffffff16815260200190815260200160002060000160009054906101000a900460ff1660ff1611610da3576040517f08c379a00000000000000000000000000000000000000000000000000000000081526004018080602001828103825260138152602001807f796f75277265206e6f742061206472697665720000000000000000000000000081525060200191505060405180910390fd5b600360003373ffffffffffffffffffffffffffffffffffffffff1673ffffffffffffffffffffffffffffffffffffffff16815260200190815260200160002060000160019054906101000a900460ff1615610e66576040517f08c379a00000000000000000000000000000000000000000000000000000000081526004018080602001828103825260188152602001807f796f7527726520616c726561647920617661696c61626c65000000000000000081525060200191505060405180910390fd5b6001600360003373ffffffffffffffffffffffffffffffffffffffff1673ffffffffffffffffffffffffffffffffffffffff16815260200190815260200160002060000160016101000a81548160ff0219169083151502179055503373ffffffffffffffffffffffffffffffffffffffff167f3be4a58caec0406edcfcf2aafc4396e4cb5829b216d9d1d8b2648939881668f960405160405180910390a256fe596f752061726520616c7265616479207265676973746572656420746f20647269766521596f752061726520616c726561647920686176652061207061636b61676520696e207472616e73697421a26469706673582212206a02b6d99826823df6f728317eb0b5e453f52219f8277a8e7bdf18060bd8190964736f6c63430006060033",
  "immutableReferences": {},
  "source": "pragma solidity >=0.6.6;\n//import \"github.com/provable-things/ethereum-api/provableAPI_0.4.25.sol\";\n\n/** \n * @title Ballot\n * @dev Implements voting process along with vote delegation\n */\ncontract Shipping {\n   \n    struct Location {\n        int lat;\n        int long;\n    }\n    \n    struct Shipment {\n        uint8 width;\n        uint8 height;\n        uint8 length;\n        uint8 weight;\n        \n        Location origin;\n        Location destination;\n        \n    }\n    \n    struct Driver {\n        uint8 weight_capacity;\n        \n        bool available;\n        \n        uint8 width; \n        uint8 height;\n        uint8 length;\n        \n        Location loc;\n    }\n    \n    struct Route {\n        Driver driver;\n        Shipment package;\n        Location pickup;\n        Location end;\n    }\n\n    bytes32 private ipfs_hash;\n    \n \n\n    \n    /*CREDENTIAL*/\n    mapping(address => bytes32) driver_auth;\n    mapping(address => bytes32) shipper_auth;\n    /*=====================*/\n    \n    modifier authenticatedDriver(bytes memory password) \n    { require(driver_auth[msg.sender] == keccak256(password), \"Incorrect Password\"); \n      _; \n    } \n    \n    \n    mapping(address => Driver) drivers;\n    mapping(address => Shipment) shipments;\n\n    \n    mapping(bytes32 => Route) routes;\n\n    \n    event Dropoff(bytes32 indexed route);\n    event Pickup(bytes32 indexed route);\n    event DriverRequest(address indexed driver);\n    event DriverSignup(address indexed driver);\n    event DriverCancel(address indexed driver);\n    event RouteRequest(bytes32 indexed route);\n    event ShipmentRequest(address indexed shipment);\n    \n\n    // constructor(bytes32 ipfshash) public {\n    //     ipfs_hash = ipfshash;\n    // }\n    \n\n    function ship_package(uint8 origin_lat, uint8 origin_long,uint8 dest_lat, uint8 dest_long, uint8 weight, uint8 height, uint8 width, uint8 length) public payable{\n        require((weight > 0) && (height > 0) && (length > 0) && (width > 0) , \"Invalid package dimensions.\");\n        require(shipments[msg.sender] .weight == 0, \"You are already have a package in transit!\");\n        \n        \n        Location storage origin; \n        origin.lat = origin_lat;\n        origin.long = origin_long;\n        \n        Location storage dest; \n        dest.lat = dest_lat;\n        dest.long = dest_long;\n\n        Shipment storage shipment;\n        shipment.width = width;\n        shipment.height = height;\n        shipment.length = length;\n        shipment.width = width;\n\n        //Shipment(width,height, length, weight, origin, dest);\n        shipments[msg.sender] = shipment;\n        emit ShipmentRequest(msg.sender);\n    }\n    \n    function checkMyDrivingCapacity(string memory password) public authenticatedDriver(bytes(password)) view returns (uint8) {\n        return drivers[msg.sender].weight_capacity;\n    }\n    \n    function driverAvailable(address driver) public view returns (bool)\n    {\n        require(drivers[driver].weight_capacity > 0, \"no such driver\");\n        return drivers[driver].available;\n    }\n    \n     function available_to_drive() public\n    {\n        require(drivers[msg.sender].weight_capacity > 0, \"you're not a driver\");\n        require(!drivers[msg.sender].available , \"you're already available\");\n        drivers[msg.sender].available = true;\n        emit DriverRequest(msg.sender);\n    }\n    \n    function signup_to_drive(uint8 lat, uint8 long, uint8 weight, uint8 height, uint8 width, uint8 length, string memory password) public payable{\n        require((weight > 0) && (height > 0) && (length > 0) && (width > 0) , \"Invalid car dimensions.\");\n        require(drivers[msg.sender].weight_capacity == 0, \"You are already registered to drive!\");\n        Location storage loc;\n        loc.lat = lat;\n        loc.long = long;\n        Driver storage driver;\n        driver.weight_capacity = weight;\n        driver.available = false;\n        driver.height = height;\n        driver.length = length;\n        driver.loc = loc;\n        drivers[msg.sender] = driver;\n        driver_auth[msg.sender] = keccak256(bytes(password));\n        emit DriverSignup(msg.sender);\n    }\n    \n}\n",
  "sourcePath": "/Users/satchel/Documents/BU/softdev/UB/Blockchain/Janus-contract/contracts/Shipping.sol",
  "compiler": {
    "name": "solc",
    "version": "0.6.6+commit.6c089d02.Emscripten.clang"
  },
  "schemaVersion": "3.2.5",
  "updatedAt": "2020-12-06T05:58:03.335Z",
  "devdoc": {
    "details": "Implements voting process along with vote delegation",
    "methods": {},
    "title": "Ballot"
  },
  "userdoc": {
    "methods": {}
  }
}