{
  "contractName": "Shipping",
  "abi": [
    {
      "anonymous": false,
      "inputs": [
        {
          "indexed": true,
          "internalType": "address",
          "name": "driver",
          "type": "address"
        }
      ],
      "name": "DriverCancel",
      "type": "event"
    },
    {
      "anonymous": false,
      "inputs": [
        {
          "indexed": true,
          "internalType": "address",
          "name": "driver",
          "type": "address"
        }
      ],
      "name": "DriverRequest",
      "type": "event"
    },
    {
      "anonymous": false,
      "inputs": [
        {
          "indexed": true,
          "internalType": "address",
          "name": "driver",
          "type": "address"
        }
      ],
      "name": "DriverSignup",
      "type": "event"
    },
    {
      "anonymous": false,
      "inputs": [
        {
          "indexed": true,
          "internalType": "bytes32",
          "name": "route",
          "type": "bytes32"
        }
      ],
      "name": "Dropoff",
      "type": "event"
    },
    {
      "anonymous": false,
      "inputs": [
        {
          "indexed": true,
          "internalType": "bytes32",
          "name": "route",
          "type": "bytes32"
        }
      ],
      "name": "Pickup",
      "type": "event"
    },
    {
      "anonymous": false,
      "inputs": [
        {
          "indexed": true,
          "internalType": "bytes32",
          "name": "route",
          "type": "bytes32"
        }
      ],
      "name": "RouteRequest",
      "type": "event"
    },
    {
      "anonymous": false,
      "inputs": [
        {
          "indexed": true,
          "internalType": "address",
          "name": "shipment",
          "type": "address"
        }
      ],
      "name": "ShipmentRequest",
      "type": "event"
    },
    {
      "inputs": [],
      "name": "packagesWaiting",
      "outputs": [
        {
          "internalType": "bool",
          "name": "",
          "type": "bool"
        }
      ],
      "stateMutability": "view",
      "type": "function"
    },
    {
      "inputs": [],
      "name": "dropoff",
      "outputs": [],
      "stateMutability": "payable",
      "type": "function"
    },
    {
      "inputs": [],
      "name": "view_contract_balance",
      "outputs": [
        {
          "internalType": "uint256",
          "name": "",
          "type": "uint256"
        }
      ],
      "stateMutability": "view",
      "type": "function"
    },
    {
      "inputs": [
        {
          "internalType": "address payable",
          "name": "addr",
          "type": "address"
        }
      ],
      "name": "empty_contract",
      "outputs": [],
      "stateMutability": "payable",
      "type": "function"
    },
    {
      "inputs": [],
      "name": "getHeadPackage",
      "outputs": [
        {
          "internalType": "address",
          "name": "",
          "type": "address"
        }
      ],
      "stateMutability": "view",
      "type": "function"
    },
    {
      "inputs": [
        {
          "internalType": "address",
          "name": "adr",
          "type": "address"
        }
      ],
      "name": "shipmentExists",
      "outputs": [
        {
          "internalType": "bool",
          "name": "",
          "type": "bool"
        }
      ],
      "stateMutability": "view",
      "type": "function"
    },
    {
      "inputs": [],
      "name": "claimPackage",
      "outputs": [],
      "stateMutability": "nonpayable",
      "type": "function"
    },
    {
      "inputs": [
        {
          "internalType": "uint8",
          "name": "origin_lat",
          "type": "uint8"
        },
        {
          "internalType": "uint8",
          "name": "origin_long",
          "type": "uint8"
        },
        {
          "internalType": "uint8",
          "name": "dest_lat",
          "type": "uint8"
        },
        {
          "internalType": "uint8",
          "name": "dest_long",
          "type": "uint8"
        }
      ],
      "name": "get_cost",
      "outputs": [
        {
          "internalType": "uint256",
          "name": "",
          "type": "uint256"
        }
      ],
      "stateMutability": "view",
      "type": "function"
    },
    {
      "inputs": [
        {
          "internalType": "uint8",
          "name": "origin_lat",
          "type": "uint8"
        },
        {
          "internalType": "uint8",
          "name": "origin_long",
          "type": "uint8"
        },
        {
          "internalType": "uint8",
          "name": "dest_lat",
          "type": "uint8"
        },
        {
          "internalType": "uint8",
          "name": "dest_long",
          "type": "uint8"
        },
        {
          "internalType": "uint8",
          "name": "weight",
          "type": "uint8"
        },
        {
          "internalType": "uint8",
          "name": "height",
          "type": "uint8"
        },
        {
          "internalType": "uint8",
          "name": "width",
          "type": "uint8"
        },
        {
          "internalType": "uint8",
          "name": "length",
          "type": "uint8"
        }
      ],
      "name": "ship_package",
      "outputs": [],
      "stateMutability": "payable",
      "type": "function"
    },
    {
      "inputs": [],
      "name": "unavailable_to_drive",
      "outputs": [],
      "stateMutability": "nonpayable",
      "type": "function"
    },
    {
      "inputs": [
        {
          "internalType": "address",
          "name": "driver",
          "type": "address"
        }
      ],
      "name": "driverAvailable",
      "outputs": [
        {
          "internalType": "bool",
          "name": "",
          "type": "bool"
        }
      ],
      "stateMutability": "view",
      "type": "function"
    },
    {
      "inputs": [
        {
          "internalType": "address",
          "name": "driver",
          "type": "address"
        }
      ],
      "name": "driverExists",
      "outputs": [
        {
          "internalType": "bool",
          "name": "",
          "type": "bool"
        }
      ],
      "stateMutability": "view",
      "type": "function"
    },
    {
      "inputs": [
        {
          "internalType": "address",
          "name": "adr",
          "type": "address"
        }
      ],
      "name": "get_shipment_status",
      "outputs": [
        {
          "internalType": "uint8",
          "name": "",
          "type": "uint8"
        }
      ],
      "stateMutability": "view",
      "type": "function"
    },
    {
      "inputs": [
        {
          "internalType": "address",
          "name": "shipment",
          "type": "address"
        }
      ],
      "name": "get_shipment",
      "outputs": [
        {
          "components": [
            {
              "internalType": "uint8",
              "name": "width",
              "type": "uint8"
            },
            {
              "internalType": "uint8",
              "name": "height",
              "type": "uint8"
            },
            {
              "internalType": "uint8",
              "name": "length",
              "type": "uint8"
            },
            {
              "internalType": "uint8",
              "name": "weight",
              "type": "uint8"
            },
            {
              "internalType": "uint8",
              "name": "id",
              "type": "uint8"
            },
            {
              "components": [
                {
                  "internalType": "int256",
                  "name": "lat",
                  "type": "int256"
                },
                {
                  "internalType": "int256",
                  "name": "long",
                  "type": "int256"
                }
              ],
              "internalType": "struct Shipping.Location",
              "name": "origin",
              "type": "tuple"
            },
            {
              "components": [
                {
                  "internalType": "int256",
                  "name": "lat",
                  "type": "int256"
                },
                {
                  "internalType": "int256",
                  "name": "long",
                  "type": "int256"
                }
              ],
              "internalType": "struct Shipping.Location",
              "name": "destination",
              "type": "tuple"
            },
            {
              "internalType": "address",
              "name": "addr",
              "type": "address"
            },
            {
              "internalType": "address",
              "name": "nextShipment",
              "type": "address"
            },
            {
              "internalType": "address",
              "name": "driver",
              "type": "address"
            },
            {
              "internalType": "uint8",
              "name": "status",
              "type": "uint8"
            },
            {
              "internalType": "uint256",
              "name": "payment",
              "type": "uint256"
            }
          ],
          "internalType": "struct Shipping.Shipment",
          "name": "",
          "type": "tuple"
        }
      ],
      "stateMutability": "view",
      "type": "function"
    },
    {
      "inputs": [
        {
          "internalType": "address",
          "name": "driver",
          "type": "address"
        }
      ],
      "name": "get_driver",
      "outputs": [
        {
          "components": [
            {
              "internalType": "uint8",
              "name": "weight_capacity",
              "type": "uint8"
            },
            {
              "internalType": "bool",
              "name": "available",
              "type": "bool"
            },
            {
              "internalType": "uint8",
              "name": "width",
              "type": "uint8"
            },
            {
              "internalType": "uint8",
              "name": "height",
              "type": "uint8"
            },
            {
              "internalType": "uint8",
              "name": "length",
              "type": "uint8"
            },
            {
              "components": [
                {
                  "internalType": "int256",
                  "name": "lat",
                  "type": "int256"
                },
                {
                  "internalType": "int256",
                  "name": "long",
                  "type": "int256"
                }
              ],
              "internalType": "struct Shipping.Location",
              "name": "loc",
              "type": "tuple"
            },
            {
              "internalType": "uint8",
              "name": "status",
              "type": "uint8"
            },
            {
              "internalType": "address",
              "name": "package",
              "type": "address"
            },
            {
              "internalType": "uint8",
              "name": "id",
              "type": "uint8"
            }
          ],
          "internalType": "struct Shipping.Driver",
          "name": "",
          "type": "tuple"
        }
      ],
      "stateMutability": "view",
      "type": "function"
    },
    {
      "inputs": [
        {
          "internalType": "address",
          "name": "adr",
          "type": "address"
        }
      ],
      "name": "get_driver_status",
      "outputs": [
        {
          "internalType": "uint8",
          "name": "",
          "type": "uint8"
        }
      ],
      "stateMutability": "view",
      "type": "function"
    },
    {
      "inputs": [
        {
          "internalType": "address",
          "name": "package",
          "type": "address"
        }
      ],
      "name": "get_package_dest_lat",
      "outputs": [
        {
          "internalType": "int256",
          "name": "",
          "type": "int256"
        }
      ],
      "stateMutability": "view",
      "type": "function"
    },
    {
      "inputs": [
        {
          "internalType": "address",
          "name": "package",
          "type": "address"
        }
      ],
      "name": "get_package_dest_long",
      "outputs": [
        {
          "internalType": "int256",
          "name": "",
          "type": "int256"
        }
      ],
      "stateMutability": "view",
      "type": "function"
    },
    {
      "inputs": [
        {
          "internalType": "address",
          "name": "package",
          "type": "address"
        }
      ],
      "name": "get_package_driver",
      "outputs": [
        {
          "internalType": "address",
          "name": "",
          "type": "address"
        }
      ],
      "stateMutability": "view",
      "type": "function"
    },
    {
      "inputs": [],
      "name": "available_to_drive",
      "outputs": [],
      "stateMutability": "nonpayable",
      "type": "function"
    },
    {
      "inputs": [
        {
          "internalType": "uint8",
          "name": "lat",
          "type": "uint8"
        },
        {
          "internalType": "uint8",
          "name": "long",
          "type": "uint8"
        },
        {
          "internalType": "uint8",
          "name": "weight",
          "type": "uint8"
        },
        {
          "internalType": "uint8",
          "name": "height",
          "type": "uint8"
        },
        {
          "internalType": "uint8",
          "name": "width",
          "type": "uint8"
        },
        {
          "internalType": "uint8",
          "name": "length",
          "type": "uint8"
        }
      ],
      "name": "signup_to_drive",
      "outputs": [],
      "stateMutability": "payable",
      "type": "function"
    },
    {
      "inputs": [
        {
          "internalType": "address",
          "name": "adr",
          "type": "address"
        }
      ],
      "name": "get_driver_package",
      "outputs": [
        {
          "internalType": "address",
          "name": "",
          "type": "address"
        }
      ],
      "stateMutability": "view",
      "type": "function"
    },
    {
      "inputs": [
        {
          "internalType": "address",
          "name": "adr",
          "type": "address"
        }
      ],
      "name": "get_driver_goal_long",
      "outputs": [
        {
          "internalType": "int256",
          "name": "",
          "type": "int256"
        }
      ],
      "stateMutability": "view",
      "type": "function"
    },
    {
      "inputs": [
        {
          "internalType": "address",
          "name": "adr",
          "type": "address"
        }
      ],
      "name": "get_driver_goal_lat",
      "outputs": [
        {
          "internalType": "int256",
          "name": "",
          "type": "int256"
        }
      ],
      "stateMutability": "view",
      "type": "function"
    }
  ],
  "bytecode": "0x608060405234801561001057600080fd5b50613fb9806100206000396000f3fe60806040526004361061014b5760003560e01c806398358258116100b6578063da03af941161006f578063da03af9414610494578063dacc1bfb146104d1578063e085f5851461050e578063e8ca96b11461054b578063f9d6abe714610576578063fe8cfebb1461058d5761014b565b8063983582581461037a5780639b09753e146103b7578063bd0a7849146103d3578063c0090ffb146103fe578063c99e07431461043b578063c9ddec25146104785761014b565b80633e8d5ea2116101085780633e8d5ea21461023f5780635901bbe81461027c5780636d66a143146102b957806373de1176146102e45780637be3fd5a1461032157806389e880fe1461033d5761014b565b80630a5a4501146101505780630aebd1c114610167578063102393191461017e5780631095f49a146101bb57806311bd4435146101f857806319f7ed2814610202575b600080fd5b34801561015c57600080fd5b506101656105ca565b005b34801561017357600080fd5b5061017c61074b565b005b34801561018a57600080fd5b506101a560048036038101906101a09190613207565b610cc5565b6040516101b29190613bd3565b60405180910390f35b3480156101c757600080fd5b506101e260048036038101906101dd9190613207565b610e9e565b6040516101ef9190613bd3565b60405180910390f35b610200610f82565b005b34801561020e57600080fd5b5061022960048036038101906102249190613207565b6113ad565b6040516102369190613ea1565b60405180910390f35b34801561024b57600080fd5b5061026660048036038101906102619190613207565b61149a565b6040516102739190613e6a565b60405180910390f35b34801561028857600080fd5b506102a3600480360381019061029e9190613207565b611793565b6040516102b09190613b9d565b60405180910390f35b3480156102c557600080fd5b506102ce611894565b6040516102db9190613e86565b60405180910390f35b3480156102f057600080fd5b5061030b60048036038101906103069190613207565b61189c565b6040516103189190613b9d565b60405180910390f35b61033b60048036038101906103369190613230565b611a30565b005b34801561034957600080fd5b50610364600480360381019061035f9190613207565b611a7a565b6040516103719190613bb8565b60405180910390f35b34801561038657600080fd5b506103a1600480360381019061039c9190613259565b611b67565b6040516103ae9190613e86565b60405180910390f35b6103d160048036038101906103cc91906132bc565b611bad565b005b3480156103df57600080fd5b506103e8611fd5565b6040516103f59190613bb8565b60405180910390f35b34801561040a57600080fd5b5061042560048036038101906104209190613207565b612054565b6040516104329190613e4e565b60405180910390f35b34801561044757600080fd5b50610462600480360381019061045d9190613207565b61228a565b60405161046f9190613bb8565b60405180910390f35b610492600480360381019061048d9190613345565b6122e9565b005b3480156104a057600080fd5b506104bb60048036038101906104b69190613207565b61299e565b6040516104c89190613bb8565b60405180910390f35b3480156104dd57600080fd5b506104f860048036038101906104f39190613207565b6129fc565b6040516105059190613bd3565b60405180910390f35b34801561051a57600080fd5b5061053560048036038101906105309190613207565b612ae0565b6040516105429190613bd3565b60405180910390f35b34801561055757600080fd5b50610560612cb9565b60405161056d9190613b9d565b60405180910390f35b34801561058257600080fd5b5061058b612d2a565b005b34801561059957600080fd5b506105b460048036038101906105af9190613207565b612f83565b6040516105c19190613ea1565b60405180910390f35b6000600160003373ffffffffffffffffffffffffffffffffffffffff1673ffffffffffffffffffffffffffffffffffffffff16815260200190815260200160002060030160159054906101000a900460ff1660ff161161065f576040517f08c379a000000000000000000000000000000000000000000000000000000000815260040161065690613cee565b60405180910390fd5b600160003373ffffffffffffffffffffffffffffffffffffffff1673ffffffffffffffffffffffffffffffffffffffff16815260200190815260200160002060000160019054906101000a900460ff166106ee576040517f08c379a00000000000000000000000000000000000000000000000000000000081526004016106e590613dae565b60405180910390fd5b6000600160003373ffffffffffffffffffffffffffffffffffffffff1673ffffffffffffffffffffffffffffffffffffffff16815260200190815260200160002060000160016101000a81548160ff021916908315150217905550565b6000600160003373ffffffffffffffffffffffffffffffffffffffff1673ffffffffffffffffffffffffffffffffffffffff16815260200190815260200160002060030160159054906101000a900460ff1660ff16116107e0576040517f08c379a00000000000000000000000000000000000000000000000000000000081526004016107d790613cee565b60405180910390fd5b6000600160003373ffffffffffffffffffffffffffffffffffffffff1673ffffffffffffffffffffffffffffffffffffffff16815260200190815260200160002060030160009054906101000a900460ff1660ff1614610875576040517f08c379a000000000000000000000000000000000000000000000000000000000815260040161086c90613dee565b60405180910390fd5b60011515600160003373ffffffffffffffffffffffffffffffffffffffff1673ffffffffffffffffffffffffffffffffffffffff16815260200190815260200160002060000160019054906101000a900460ff1615151461090b576040517f08c379a000000000000000000000000000000000000000000000000000000000815260040161090290613dae565b60405180910390fd5b600060026000600460009054906101000a900473ffffffffffffffffffffffffffffffffffffffff1673ffffffffffffffffffffffffffffffffffffffff1673ffffffffffffffffffffffffffffffffffffffff16815260200190815260200160002060070160149054906101000a900460ff1660ff16146109c2576040517f08c379a00000000000000000000000000000000000000000000000000000000081526004016109b990613d4e565b60405180910390fd5b6000600460009054906101000a900473ffffffffffffffffffffffffffffffffffffffff16905060026000600460009054906101000a900473ffffffffffffffffffffffffffffffffffffffff1673ffffffffffffffffffffffffffffffffffffffff1673ffffffffffffffffffffffffffffffffffffffff16815260200190815260200160002060060160009054906101000a900473ffffffffffffffffffffffffffffffffffffffff16600460006101000a81548173ffffffffffffffffffffffffffffffffffffffff021916908373ffffffffffffffffffffffffffffffffffffffff16021790555060018060003373ffffffffffffffffffffffffffffffffffffffff1673ffffffffffffffffffffffffffffffffffffffff16815260200190815260200160002060030160006101000a81548160ff021916908360ff16021790555080600160003373ffffffffffffffffffffffffffffffffffffffff1673ffffffffffffffffffffffffffffffffffffffff16815260200190815260200160002060030160016101000a81548173ffffffffffffffffffffffffffffffffffffffff021916908373ffffffffffffffffffffffffffffffffffffffff1602179055506000600160003373ffffffffffffffffffffffffffffffffffffffff1673ffffffffffffffffffffffffffffffffffffffff16815260200190815260200160002060000160016101000a81548160ff0219169083151502179055506001600260008373ffffffffffffffffffffffffffffffffffffffff1673ffffffffffffffffffffffffffffffffffffffff16815260200190815260200160002060070160146101000a81548160ff021916908360ff16021790555033600260008373ffffffffffffffffffffffffffffffffffffffff1673ffffffffffffffffffffffffffffffffffffffff16815260200190815260200160002060070160006101000a81548173ffffffffffffffffffffffffffffffffffffffff021916908373ffffffffffffffffffffffffffffffffffffffff16021790555050565b600080600160008473ffffffffffffffffffffffffffffffffffffffff1673ffffffffffffffffffffffffffffffffffffffff16815260200190815260200160002060030160159054906101000a900460ff1660ff1611610d5b576040517f08c379a0000000000000000000000000000000000000000000000000000000008152600401610d5290613c8e565b60405180910390fd5b60018060008473ffffffffffffffffffffffffffffffffffffffff1673ffffffffffffffffffffffffffffffffffffffff16815260200190815260200160002060030160009054906101000a900460ff1660ff1614610def576040517f08c379a0000000000000000000000000000000000000000000000000000000008152600401610de690613cce565b60405180910390fd5b60026000600160008573ffffffffffffffffffffffffffffffffffffffff1673ffffffffffffffffffffffffffffffffffffffff16815260200190815260200160002060030160019054906101000a900473ffffffffffffffffffffffffffffffffffffffff1673ffffffffffffffffffffffffffffffffffffffff1673ffffffffffffffffffffffffffffffffffffffff168152602001908152602001600020600301600101549050919050565b60006001600260008473ffffffffffffffffffffffffffffffffffffffff1673ffffffffffffffffffffffffffffffffffffffff16815260200190815260200160002060000160049054906101000a900460ff1660ff1614610f35576040517f08c379a0000000000000000000000000000000000000000000000000000000008152600401610f2c90613cae565b60405180910390fd5b600260008373ffffffffffffffffffffffffffffffffffffffff1673ffffffffffffffffffffffffffffffffffffffff168152602001908152602001600020600301600001549050919050565b60018060003373ffffffffffffffffffffffffffffffffffffffff1673ffffffffffffffffffffffffffffffffffffffff16815260200190815260200160002060030160159054906101000a900460ff1660ff1614611016576040517f08c379a000000000000000000000000000000000000000000000000000000000815260040161100d90613cee565b60405180910390fd5b60018060003373ffffffffffffffffffffffffffffffffffffffff1673ffffffffffffffffffffffffffffffffffffffff16815260200190815260200160002060030160009054906101000a900460ff1660ff16146110aa576040517f08c379a00000000000000000000000000000000000000000000000000000000081526004016110a190613c4e565b60405180910390fd5b6002806000600160003373ffffffffffffffffffffffffffffffffffffffff1673ffffffffffffffffffffffffffffffffffffffff16815260200190815260200160002060030160019054906101000a900473ffffffffffffffffffffffffffffffffffffffff1673ffffffffffffffffffffffffffffffffffffffff1673ffffffffffffffffffffffffffffffffffffffff16815260200190815260200160002060070160146101000a81548160ff021916908360ff1602179055506000600160003373ffffffffffffffffffffffffffffffffffffffff1673ffffffffffffffffffffffffffffffffffffffff16815260200190815260200160002060030160006101000a81548160ff021916908360ff16021790555060026000600160003373ffffffffffffffffffffffffffffffffffffffff1673ffffffffffffffffffffffffffffffffffffffff16815260200190815260200160002060030160019054906101000a900473ffffffffffffffffffffffffffffffffffffffff1673ffffffffffffffffffffffffffffffffffffffff1673ffffffffffffffffffffffffffffffffffffffff168152602001908152602001600020600301600160003373ffffffffffffffffffffffffffffffffffffffff1673ffffffffffffffffffffffffffffffffffffffff16815260200190815260200160002060010160008201548160000155600182015481600101559050503373ffffffffffffffffffffffffffffffffffffffff166108fc60026000600160003373ffffffffffffffffffffffffffffffffffffffff1673ffffffffffffffffffffffffffffffffffffffff16815260200190815260200160002060030160019054906101000a900473ffffffffffffffffffffffffffffffffffffffff1673ffffffffffffffffffffffffffffffffffffffff1673ffffffffffffffffffffffffffffffffffffffff168152602001908152602001600020600801549081150290604051600060405180830381858888f193505050501580156113aa573d6000803e3d6000fd5b50565b600080600160008473ffffffffffffffffffffffffffffffffffffffff1673ffffffffffffffffffffffffffffffffffffffff16815260200190815260200160002060030160159054906101000a900460ff1660ff1611611443576040517f08c379a000000000000000000000000000000000000000000000000000000000815260040161143a90613bee565b60405180910390fd5b600160008373ffffffffffffffffffffffffffffffffffffffff1673ffffffffffffffffffffffffffffffffffffffff16815260200190815260200160002060030160009054906101000a900460ff169050919050565b6114a2613071565b6001600260008473ffffffffffffffffffffffffffffffffffffffff1673ffffffffffffffffffffffffffffffffffffffff16815260200190815260200160002060000160049054906101000a900460ff1660ff1614611537576040517f08c379a000000000000000000000000000000000000000000000000000000000815260040161152e90613e2e565b60405180910390fd5b600260008373ffffffffffffffffffffffffffffffffffffffff1673ffffffffffffffffffffffffffffffffffffffff168152602001908152602001600020604051806101800160405290816000820160009054906101000a900460ff1660ff1660ff1681526020016000820160019054906101000a900460ff1660ff1660ff1681526020016000820160029054906101000a900460ff1660ff1660ff1681526020016000820160039054906101000a900460ff1660ff1660ff1681526020016000820160049054906101000a900460ff1660ff1660ff16815260200160018201604051806040016040529081600082015481526020016001820154815250508152602001600382016040518060400160405290816000820154815260200160018201548152505081526020016005820160009054906101000a900473ffffffffffffffffffffffffffffffffffffffff1673ffffffffffffffffffffffffffffffffffffffff1673ffffffffffffffffffffffffffffffffffffffff1681526020016006820160009054906101000a900473ffffffffffffffffffffffffffffffffffffffff1673ffffffffffffffffffffffffffffffffffffffff1673ffffffffffffffffffffffffffffffffffffffff1681526020016007820160009054906101000a900473ffffffffffffffffffffffffffffffffffffffff1673ffffffffffffffffffffffffffffffffffffffff1673ffffffffffffffffffffffffffffffffffffffff1681526020016007820160149054906101000a900460ff1660ff1660ff1681526020016008820154815250509050919050565b60006001600260008473ffffffffffffffffffffffffffffffffffffffff1673ffffffffffffffffffffffffffffffffffffffff16815260200190815260200160002060000160049054906101000a900460ff1660ff161461182a576040517f08c379a000000000000000000000000000000000000000000000000000000000815260040161182190613cae565b60405180910390fd5b600260008373ffffffffffffffffffffffffffffffffffffffff1673ffffffffffffffffffffffffffffffffffffffff16815260200190815260200160002060070160009054906101000a900473ffffffffffffffffffffffffffffffffffffffff169050919050565b600047905090565b600080600160008473ffffffffffffffffffffffffffffffffffffffff1673ffffffffffffffffffffffffffffffffffffffff16815260200190815260200160002060030160159054906101000a900460ff1660ff1611611932576040517f08c379a000000000000000000000000000000000000000000000000000000000815260040161192990613c8e565b60405180910390fd5b60018060008473ffffffffffffffffffffffffffffffffffffffff1673ffffffffffffffffffffffffffffffffffffffff16815260200190815260200160002060030160009054906101000a900460ff1660ff16146119c6576040517f08c379a00000000000000000000000000000000000000000000000000000000081526004016119bd90613cce565b60405180910390fd5b600160008373ffffffffffffffffffffffffffffffffffffffff1673ffffffffffffffffffffffffffffffffffffffff16815260200190815260200160002060030160019054906101000a900473ffffffffffffffffffffffffffffffffffffffff169050919050565b8073ffffffffffffffffffffffffffffffffffffffff166108fc479081150290604051600060405180830381858888f19350505050158015611a76573d6000803e3d6000fd5b5050565b600080600160008473ffffffffffffffffffffffffffffffffffffffff1673ffffffffffffffffffffffffffffffffffffffff16815260200190815260200160002060000160009054906101000a900460ff1660ff1611611b10576040517f08c379a0000000000000000000000000000000000000000000000000000000008152600401611b0790613e0e565b60405180910390fd5b600160008373ffffffffffffffffffffffffffffffffffffffff1673ffffffffffffffffffffffffffffffffffffffff16815260200190815260200160002060000160019054906101000a900460ff169050919050565b6000808386039050600083860390506000620f42409050620f42408260ff160262ffffff16620f42408460ff160262ffffff168201019050809350505050949350505050565b60008460ff16118015611bc3575060008360ff16115b8015611bd2575060008160ff16115b8015611be1575060008260ff16115b611c20576040517f08c379a0000000000000000000000000000000000000000000000000000000008152600401611c1790613c6e565b60405180910390fd5b6000600160003373ffffffffffffffffffffffffffffffffffffffff1673ffffffffffffffffffffffffffffffffffffffff16815260200190815260200160002060000160009054906101000a900460ff1660ff1614611cb5576040517f08c379a0000000000000000000000000000000000000000000000000000000008152600401611cac90613d6e565b60405180910390fd5b60008660ff1681600001819055508560ff1681600101819055506000858160000160006101000a81548160ff021916908360ff16021790555060008160000160016101000a81548160ff021916908315150217905550848160000160036101000a81548160ff021916908360ff160217905550828160000160046101000a81548160ff021916908360ff1602179055508181600101600082015481600001556001820154816001015590505060018160030160156101000a81548160ff021916908360ff16021790555080600160003373ffffffffffffffffffffffffffffffffffffffff1673ffffffffffffffffffffffffffffffffffffffff1681526020019081526020016000206000820160009054906101000a900460ff168160000160006101000a81548160ff021916908360ff1602179055506000820160019054906101000a900460ff168160000160016101000a81548160ff0219169083151502179055506000820160029054906101000a900460ff168160000160026101000a81548160ff021916908360ff1602179055506000820160039054906101000a900460ff168160000160036101000a81548160ff021916908360ff1602179055506000820160049054906101000a900460ff168160000160046101000a81548160ff021916908360ff1602179055506001820181600101600082015481600001556001820154816001015550506003820160009054906101000a900460ff168160030160006101000a81548160ff021916908360ff1602179055506003820160019054906101000a900473ffffffffffffffffffffffffffffffffffffffff168160030160016101000a81548173ffffffffffffffffffffffffffffffffffffffff021916908373ffffffffffffffffffffffffffffffffffffffff1602179055506003820160159054906101000a900460ff168160030160156101000a81548160ff021916908360ff1602179055509050503373ffffffffffffffffffffffffffffffffffffffff167f8aaeb40d9e7cba5a027e1138aff22a61061da58020c12be3d416e7f0ad1b52bd60405160405180910390a25050505050505050565b60008060026000600460009054906101000a900473ffffffffffffffffffffffffffffffffffffffff1673ffffffffffffffffffffffffffffffffffffffff1673ffffffffffffffffffffffffffffffffffffffff16815260200190815260200160002060000160049054906101000a900460ff1660ff161415905090565b61205c613132565b6000600160008473ffffffffffffffffffffffffffffffffffffffff1673ffffffffffffffffffffffffffffffffffffffff16815260200190815260200160002060030160159054906101000a900460ff1660ff16116120f1576040517f08c379a00000000000000000000000000000000000000000000000000000000081526004016120e890613bee565b60405180910390fd5b600160008373ffffffffffffffffffffffffffffffffffffffff1673ffffffffffffffffffffffffffffffffffffffff168152602001908152602001600020604051806101200160405290816000820160009054906101000a900460ff1660ff1660ff1681526020016000820160019054906101000a900460ff161515151581526020016000820160029054906101000a900460ff1660ff1660ff1681526020016000820160039054906101000a900460ff1660ff1660ff1681526020016000820160049054906101000a900460ff1660ff1660ff168152602001600182016040518060400160405290816000820154815260200160018201548152505081526020016003820160009054906101000a900460ff1660ff1660ff1681526020016003820160019054906101000a900473ffffffffffffffffffffffffffffffffffffffff1673ffffffffffffffffffffffffffffffffffffffff1673ffffffffffffffffffffffffffffffffffffffff1681526020016003820160159054906101000a900460ff1660ff1660ff16815250509050919050565b60006001600260008473ffffffffffffffffffffffffffffffffffffffff1673ffffffffffffffffffffffffffffffffffffffff16815260200190815260200160002060000160049054906101000a900460ff1660ff16149050919050565b60008460ff161180156122ff575060008360ff16115b801561230e575060008160ff16115b801561231d575060008260ff16115b61235c576040517f08c379a000000000000000000000000000000000000000000000000000000000815260040161235390613d0e565b60405180910390fd5b6000600260003373ffffffffffffffffffffffffffffffffffffffff1673ffffffffffffffffffffffffffffffffffffffff16815260200190815260200160002060000160039054906101000a900460ff1660ff16146123f1576040517f08c379a00000000000000000000000000000000000000000000000000000000081526004016123e890613d8e565b60405180910390fd5b60008689039050600086890390506000620f42409050620f42408260ff160262ffffff16620f42408460ff160262ffffff1682010190508034101561246b576040517f08c379a000000000000000000000000000000000000000000000000000000000815260040161246290613dce565b60405180910390fd5b60008b60ff1681600001819055508a60ff16816001018190555060008a60ff1681600001819055508960ff1681600101819055506000878160000160006101000a81548160ff021916908360ff160217905550888160000160016101000a81548160ff021916908360ff160217905550868160000160026101000a81548160ff021916908360ff160217905550878160000160006101000a81548160ff021916908360ff16021790555060018160000160046101000a81548160ff021916908360ff160217905550338160050160006101000a81548173ffffffffffffffffffffffffffffffffffffffff021916908373ffffffffffffffffffffffffffffffffffffffff16021790555083816008018190555080600260003373ffffffffffffffffffffffffffffffffffffffff1673ffffffffffffffffffffffffffffffffffffffff1681526020019081526020016000206000820160009054906101000a900460ff168160000160006101000a81548160ff021916908360ff1602179055506000820160019054906101000a900460ff168160000160016101000a81548160ff021916908360ff1602179055506000820160029054906101000a900460ff168160000160026101000a81548160ff021916908360ff1602179055506000820160039054906101000a900460ff168160000160036101000a81548160ff021916908360ff1602179055506000820160049054906101000a900460ff168160000160046101000a81548160ff021916908360ff1602179055506001820181600101600082015481600001556001820154816001015550506003820181600301600082015481600001556001820154816001015550506005820160009054906101000a900473ffffffffffffffffffffffffffffffffffffffff168160050160006101000a81548173ffffffffffffffffffffffffffffffffffffffff021916908373ffffffffffffffffffffffffffffffffffffffff1602179055506006820160009054906101000a900473ffffffffffffffffffffffffffffffffffffffff168160060160006101000a81548173ffffffffffffffffffffffffffffffffffffffff021916908373ffffffffffffffffffffffffffffffffffffffff1602179055506007820160009054906101000a900473ffffffffffffffffffffffffffffffffffffffff168160070160006101000a81548173ffffffffffffffffffffffffffffffffffffffff021916908373ffffffffffffffffffffffffffffffffffffffff1602179055506007820160149054906101000a900460ff168160070160146101000a81548160ff021916908360ff16021790555060088201548160080155905050612859611fd5565b1561290957600460009054906101000a900473ffffffffffffffffffffffffffffffffffffffff168160060160006101000a81548173ffffffffffffffffffffffffffffffffffffffff021916908373ffffffffffffffffffffffffffffffffffffffff16021790555033600460006101000a81548173ffffffffffffffffffffffffffffffffffffffff021916908373ffffffffffffffffffffffffffffffffffffffff16021790555061294b565b33600460006101000a81548173ffffffffffffffffffffffffffffffffffffffff021916908373ffffffffffffffffffffffffffffffffffffffff1602179055505b3373ffffffffffffffffffffffffffffffffffffffff167f4f68ee90c30694cfd74e5e50641874d566dbfd8084cb114e02b3f91d86b468e260405160405180910390a25050505050505050505050505050565b600080600160008473ffffffffffffffffffffffffffffffffffffffff1673ffffffffffffffffffffffffffffffffffffffff16815260200190815260200160002060000160009054906101000a900460ff1660ff16119050919050565b60006001600260008473ffffffffffffffffffffffffffffffffffffffff1673ffffffffffffffffffffffffffffffffffffffff16815260200190815260200160002060000160049054906101000a900460ff1660ff1614612a93576040517f08c379a0000000000000000000000000000000000000000000000000000000008152600401612a8a90613cae565b60405180910390fd5b600260008373ffffffffffffffffffffffffffffffffffffffff1673ffffffffffffffffffffffffffffffffffffffff168152602001908152602001600020600301600101549050919050565b600080600160008473ffffffffffffffffffffffffffffffffffffffff1673ffffffffffffffffffffffffffffffffffffffff16815260200190815260200160002060030160159054906101000a900460ff1660ff1611612b76576040517f08c379a0000000000000000000000000000000000000000000000000000000008152600401612b6d90613c8e565b60405180910390fd5b60018060008473ffffffffffffffffffffffffffffffffffffffff1673ffffffffffffffffffffffffffffffffffffffff16815260200190815260200160002060030160009054906101000a900460ff1660ff1614612c0a576040517f08c379a0000000000000000000000000000000000000000000000000000000008152600401612c0190613cce565b60405180910390fd5b60026000600160008573ffffffffffffffffffffffffffffffffffffffff1673ffffffffffffffffffffffffffffffffffffffff16815260200190815260200160002060030160019054906101000a900473ffffffffffffffffffffffffffffffffffffffff1673ffffffffffffffffffffffffffffffffffffffff1673ffffffffffffffffffffffffffffffffffffffff168152602001908152602001600020600301600001549050919050565b6000612cc3611fd5565b612d02576040517f08c379a0000000000000000000000000000000000000000000000000000000008152600401612cf990613d2e565b60405180910390fd5b600460009054906101000a900473ffffffffffffffffffffffffffffffffffffffff16905090565b6000600160003373ffffffffffffffffffffffffffffffffffffffff1673ffffffffffffffffffffffffffffffffffffffff16815260200190815260200160002060030160159054906101000a900460ff1660ff1611612dbf576040517f08c379a0000000000000000000000000000000000000000000000000000000008152600401612db690613cee565b60405180910390fd5b600160003373ffffffffffffffffffffffffffffffffffffffff1673ffffffffffffffffffffffffffffffffffffffff16815260200190815260200160002060000160019054906101000a900460ff1615612e4f576040517f08c379a0000000000000000000000000000000000000000000000000000000008152600401612e4690613c0e565b60405180910390fd5b60018060003373ffffffffffffffffffffffffffffffffffffffff1673ffffffffffffffffffffffffffffffffffffffff16815260200190815260200160002060030160009054906101000a900460ff1660ff161415612ee4576040517f08c379a0000000000000000000000000000000000000000000000000000000008152600401612edb90613c2e565b60405180910390fd5b60018060003373ffffffffffffffffffffffffffffffffffffffff1673ffffffffffffffffffffffffffffffffffffffff16815260200190815260200160002060000160016101000a81548160ff0219169083151502179055503373ffffffffffffffffffffffffffffffffffffffff167f3be4a58caec0406edcfcf2aafc4396e4cb5829b216d9d1d8b2648939881668f960405160405180910390a2565b60006001600260008473ffffffffffffffffffffffffffffffffffffffff1673ffffffffffffffffffffffffffffffffffffffff16815260200190815260200160002060000160049054906101000a900460ff1660ff161461301a576040517f08c379a000000000000000000000000000000000000000000000000000000000815260040161301190613e2e565b60405180910390fd5b600260008373ffffffffffffffffffffffffffffffffffffffff1673ffffffffffffffffffffffffffffffffffffffff16815260200190815260200160002060070160149054906101000a900460ff169050919050565b604051806101800160405280600060ff168152602001600060ff168152602001600060ff168152602001600060ff168152602001600060ff1681526020016130b76131ae565b81526020016130c46131ae565b8152602001600073ffffffffffffffffffffffffffffffffffffffff168152602001600073ffffffffffffffffffffffffffffffffffffffff168152602001600073ffffffffffffffffffffffffffffffffffffffff168152602001600060ff168152602001600081525090565b604051806101200160405280600060ff168152602001600015158152602001600060ff168152602001600060ff168152602001600060ff1681526020016131776131ae565b8152602001600060ff168152602001600073ffffffffffffffffffffffffffffffffffffffff168152602001600060ff1681525090565b604051806040016040528060008152602001600081525090565b6000813590506131d781613f3e565b92915050565b6000813590506131ec81613f55565b92915050565b60008135905061320181613f6c565b92915050565b60006020828403121561321957600080fd5b6000613227848285016131c8565b91505092915050565b60006020828403121561324257600080fd5b6000613250848285016131dd565b91505092915050565b6000806000806080858703121561326f57600080fd5b600061327d878288016131f2565b945050602061328e878288016131f2565b935050604061329f878288016131f2565b92505060606132b0878288016131f2565b91505092959194509250565b60008060008060008060c087890312156132d557600080fd5b60006132e389828a016131f2565b96505060206132f489828a016131f2565b955050604061330589828a016131f2565b945050606061331689828a016131f2565b935050608061332789828a016131f2565b92505060a061333889828a016131f2565b9150509295509295509295565b600080600080600080600080610100898b03121561336257600080fd5b60006133708b828c016131f2565b98505060206133818b828c016131f2565b97505060406133928b828c016131f2565b96505060606133a38b828c016131f2565b95505060806133b48b828c016131f2565b94505060a06133c58b828c016131f2565b93505060c06133d68b828c016131f2565b92505060e06133e78b828c016131f2565b9150509295985092959890939650565b61340081613ecd565b82525050565b61340f81613ecd565b82525050565b61341e81613ef1565b82525050565b61342d81613ef1565b82525050565b61343c81613efd565b82525050565b61344b81613efd565b82525050565b600061345e600983613ebc565b91507f6e6f2064726976657200000000000000000000000000000000000000000000006000830152602082019050919050565b600061349e601883613ebc565b91507f796f7527726520616c726561647920617661696c61626c6500000000000000006000830152602082019050919050565b60006134de601a83613ebc565b91507f796f7520617265206361727279696e672061207061636b6167650000000000006000830152602082019050919050565b600061351e601d83613ebc565b91507f796f75277265206e6f74206361727279696e672061207061636b6167650000006000830152602082019050919050565b600061355e601783613ebc565b91507f496e76616c6964206361722064696d656e73696f6e732e0000000000000000006000830152602082019050919050565b600061359e600c83613ebc565b91507f6e6f7420612064726976657200000000000000000000000000000000000000006000830152602082019050919050565b60006135de600f83613ebc565b91507f6e6f2073756368207061636b61676500000000000000000000000000000000006000830152602082019050919050565b600061361e600c83613ebc565b91507f6e6f74206361727279696e6700000000000000000000000000000000000000006000830152602082019050919050565b600061365e601383613ebc565b91507f796f75277265206e6f74206120647269766572000000000000000000000000006000830152602082019050919050565b600061369e601b83613ebc565b91507f496e76616c6964207061636b6167652064696d656e73696f6e732e00000000006000830152602082019050919050565b60006136de601483613ebc565b91507f6e6f207061636b6167657320696e2071756575650000000000000000000000006000830152602082019050919050565b600061371e601783613ebc565b91507f7061636b61676520616c726561647920636c61696d65640000000000000000006000830152602082019050919050565b600061375e602483613ebc565b91507f596f752061726520616c7265616479207265676973746572656420746f20647260008301527f69766521000000000000000000000000000000000000000000000000000000006020830152604082019050919050565b60006137c4602a83613ebc565b91507f596f752061726520616c726561647920686176652061207061636b616765206960008301527f6e207472616e73697421000000000000000000000000000000000000000000006020830152604082019050919050565b600061382a601483613ebc565b91507f796f75277265206e6f7420617661696c61626c650000000000000000000000006000830152602082019050919050565b600061386a601283613ebc565b91507f696e73756666696369656e742066756e647300000000000000000000000000006000830152602082019050919050565b60006138aa602183613ebc565b91507f796f7527726520616c7265616479206361727279696e672061207061636b616760008301527f65000000000000000000000000000000000000000000000000000000000000006020830152604082019050919050565b6000613910600e83613ebc565b91507f6e6f2073756368206472697665720000000000000000000000000000000000006000830152602082019050919050565b6000613950600b83613ebc565b91507f6e6f20736869706d656e740000000000000000000000000000000000000000006000830152602082019050919050565b6101408201600082015161399a6000850182613b7f565b5060208201516139ad6020850182613415565b5060408201516139c06040850182613b7f565b5060608201516139d36060850182613b7f565b5060808201516139e66080850182613b7f565b5060a08201516139f960a0850182613a3b565b5060c0820151613a0c60e0850182613b7f565b5060e0820151613a206101008501826133f7565b50610100820151613a35610120850182613b7f565b50505050565b604082016000820151613a516000850182613433565b506020820151613a646020850182613433565b50505050565b6101c082016000820151613a816000850182613b7f565b506020820151613a946020850182613b7f565b506040820151613aa76040850182613b7f565b506060820151613aba6060850182613b7f565b506080820151613acd6080850182613b7f565b5060a0820151613ae060a0850182613a3b565b5060c0820151613af360e0850182613a3b565b5060e0820151613b076101208501826133f7565b50610100820151613b1c6101408501826133f7565b50610120820151613b316101608501826133f7565b50610140820151613b46610180850182613b7f565b50610160820151613b5b6101a0850182613b61565b50505050565b613b6a81613f27565b82525050565b613b7981613f27565b82525050565b613b8881613f31565b82525050565b613b9781613f31565b82525050565b6000602082019050613bb26000830184613406565b92915050565b6000602082019050613bcd6000830184613424565b92915050565b6000602082019050613be86000830184613442565b92915050565b60006020820190508181036000830152613c0781613451565b9050919050565b60006020820190508181036000830152613c2781613491565b9050919050565b60006020820190508181036000830152613c47816134d1565b9050919050565b60006020820190508181036000830152613c6781613511565b9050919050565b60006020820190508181036000830152613c8781613551565b9050919050565b60006020820190508181036000830152613ca781613591565b9050919050565b60006020820190508181036000830152613cc7816135d1565b9050919050565b60006020820190508181036000830152613ce781613611565b9050919050565b60006020820190508181036000830152613d0781613651565b9050919050565b60006020820190508181036000830152613d2781613691565b9050919050565b60006020820190508181036000830152613d47816136d1565b9050919050565b60006020820190508181036000830152613d6781613711565b9050919050565b60006020820190508181036000830152613d8781613751565b9050919050565b60006020820190508181036000830152613da7816137b7565b9050919050565b60006020820190508181036000830152613dc78161381d565b9050919050565b60006020820190508181036000830152613de78161385d565b9050919050565b60006020820190508181036000830152613e078161389d565b9050919050565b60006020820190508181036000830152613e2781613903565b9050919050565b60006020820190508181036000830152613e4781613943565b9050919050565b600061014082019050613e646000830184613983565b92915050565b60006101c082019050613e806000830184613a6a565b92915050565b6000602082019050613e9b6000830184613b70565b92915050565b6000602082019050613eb66000830184613b8e565b92915050565b600082825260208201905092915050565b6000613ed882613f07565b9050919050565b6000613eea82613f07565b9050919050565b60008115159050919050565b6000819050919050565b600073ffffffffffffffffffffffffffffffffffffffff82169050919050565b6000819050919050565b600060ff82169050919050565b613f4781613ecd565b8114613f5257600080fd5b50565b613f5e81613edf565b8114613f6957600080fd5b50565b613f7581613f31565b8114613f8057600080fd5b5056fea26469706673582212205267f663e24798adcfd38428064cb88f1dc34806e85c3507192d9a9d580c28e764736f6c63430006060033",
  "immutableReferences": {},
  "source": "pragma solidity >=0.6.6;\npragma experimental ABIEncoderV2;\n\n//import \"github.com/provable-things/ethereum-api/provableAPI_0.4.25.sol\";\n\n/** \n * @title Ballot\n * @dev Implements voting process along with vote delegation\n */\ncontract Shipping {\n    \n   \n    struct Location {\n        int lat;\n        int long;\n    }\n    \n    struct Shipment {\n        uint8 width;\n        uint8 height;\n        uint8 length;\n        uint8 weight;\n        \n        uint8 id;\n        \n        Location origin;\n        Location destination;\n        \n        address addr;\n        address nextShipment;\n        address driver;\n        \n        uint8 status;\n        \n        uint payment;\n    }\n    \n    struct Driver {\n        uint8 weight_capacity;\n        \n        bool available;\n        \n        uint8 width; \n        uint8 height;\n        uint8 length;\n        \n        Location loc;\n        \n        uint8 status;\n        address package;\n        \n        uint8 id;\n    }\n    \n    struct Route {\n        Driver driver;\n        Shipment package;\n        Location pickup;\n        Location end;\n    }\n\n    bytes32 private ipfs_hash;\n    \n    mapping(address => Driver) drivers;\n    mapping(address => Shipment) shipments;\n    mapping(bytes32 => Route) routes;\n    \n    address queue;\n\n    \n    event Dropoff(bytes32 indexed route);\n    event Pickup(bytes32 indexed route);\n    event DriverRequest(address indexed driver);\n    event DriverSignup(address indexed driver);\n    event DriverCancel(address indexed driver);\n    event RouteRequest(bytes32 indexed route);\n    event ShipmentRequest(address indexed shipment);\n    \n    function packagesWaiting() public view returns (bool)\n    {\n        return shipments[queue].id != 0;\n    }\n    \n    function dropoff() public payable{\n        require(drivers[msg.sender].id == 1, \"you're not a driver\");\n        require(drivers[msg.sender].status == 1, \"you're not carrying a package\");\n        shipments[drivers[msg.sender].package].status = 2;\n        drivers[msg.sender].status = 0;\n        drivers[msg.sender].loc = shipments[drivers[msg.sender].package].destination;\n        msg.sender.transfer(shipments[drivers[msg.sender].package].payment);\n    }\n    \n    function view_contract_balance() public view returns (uint){\n        return address(this).balance;\n    }\n    \n    function empty_contract(address payable addr) public payable{\n        addr.transfer(address(this).balance);\n    }\n    \n    function getHeadPackage() public view returns (address)\n    {\n        require(packagesWaiting(), \"no packages in queue\");\n        return queue;\n    }\n    \n    function shipmentExists(address adr) public view returns (bool) {\n        return shipments[adr].id == 1;\n    }\n    \n    function claimPackage() public{\n        require(drivers[msg.sender].id > 0, \"you're not a driver\");\n        require(drivers[msg.sender].status == 0, \"you're already carrying a package\");\n        require(drivers[msg.sender].available == true, \"you're not available\");\n        require(shipments[queue].status == 0, \"package already claimed\");\n        address curr = queue;\n        queue = shipments[queue].nextShipment;\n        drivers[msg.sender].status = 1;\n        drivers[msg.sender].package = curr;\n        drivers[msg.sender].available = false;\n        shipments[curr].status = 1;\n        shipments[curr].driver = msg.sender;\n    }\n    \n    \n    \n\n    // constructor(bytes32 ipfshash) public {\n    //     ipfs_hash = ipfshash;\n    // }\n    \n    function get_cost(uint8 origin_lat, uint8 origin_long,uint8 dest_lat, uint8 dest_long) public view returns(uint) {\n        uint8 lat_diff = origin_lat - dest_lat;\n        uint8 long_diff = origin_long - dest_long;\n       uint base_payment = 1000000;\n        base_payment = base_payment + (lat_diff*1000000) + (long_diff*1000000);\n        return base_payment;\n    }\n    \n    \n\n    function ship_package(uint8 origin_lat, uint8 origin_long,uint8 dest_lat, uint8 dest_long, uint8 weight, uint8 height, uint8 width, uint8 length) public payable{\n        require((weight > 0) && (height > 0) && (length > 0) && (width > 0) , \"Invalid package dimensions.\");\n        require(shipments[msg.sender] .weight == 0, \"You are already have a package in transit!\");\n        \n        uint8 lat_diff = origin_lat - dest_lat;\n        uint8 long_diff = origin_long - dest_long;\n        \n        uint base_payment = 1000000;\n        base_payment = base_payment + (lat_diff*1000000) + (long_diff*1000000);\n        require(msg.value >= base_payment, \"insufficient funds\");\n\n        Location storage origin; \n        origin.lat = origin_lat;\n        origin.long = origin_long;\n        \n        Location storage dest; \n        dest.lat = dest_lat;\n        dest.long = dest_long;\n\n        Shipment storage shipment;\n        shipment.width = width;\n        shipment.height = height;\n        shipment.length = length;\n        shipment.width = width;\n        shipment.id = 1;\n        shipment.addr = msg.sender;\n        shipment.payment = base_payment;\n\n        //Shipment(width,height, length, weight, origin, dest);\n        shipments[msg.sender] = shipment;\n        if(packagesWaiting()) {\n            shipment.nextShipment = queue;\n            queue = msg.sender;\n        }\n        else {\n            queue = msg.sender;\n        }\n        emit ShipmentRequest(msg.sender);\n    }\n    \n    function unavailable_to_drive() public\n    {\n        require(drivers[msg.sender].id > 0, \"you're not a driver\");\n        require(drivers[msg.sender].available , \"you're not available\");\n        drivers[msg.sender].available = false;\n    }\n    \n    function driverAvailable(address driver) public view returns (bool)\n    {\n        require(drivers[driver].weight_capacity > 0, \"no such driver\");\n        return drivers[driver].available;\n    }\n    \n    function driverExists(address driver) public view returns (bool)\n    {\n        return drivers[driver].weight_capacity > 0;\n    }\n    \n     function get_shipment_status(address adr) public view returns (uint8)\n    {\n        require(shipments[adr].id == 1, \"no shipment\");\n        return shipments[adr].status;\n    }\n    \n    function get_shipment(address shipment) public view returns(Shipment memory) {\n        require(shipments[shipment].id == 1, \"no shipment\");\n        return shipments[shipment];\n    }\n    \n    function get_driver(address driver) public view returns(Driver memory) {\n        require(drivers[driver].id > 0, \"no driver\");\n        return drivers[driver];\n    }\n    \n     function get_driver_status(address adr) public view returns (uint8)\n    {\n        require(drivers[adr].id > 0, \"no driver\");\n        return drivers[adr].status;\n    }\n    \n    function get_package_dest_lat(address package) public view returns (int) {\n        require(shipments[package].id == 1, \"no such package\");\n        return shipments[package].destination.lat;\n    }\n    function get_package_dest_long(address package) public view returns (int) {\n        require(shipments[package].id == 1, \"no such package\");\n        return shipments[package].destination.long;\n    }\n    function get_package_driver(address package) public view returns (address) {\n        require(shipments[package].id == 1, \"no such package\");\n        return shipments[package].driver;\n    }\n    \n     function available_to_drive() public\n    {\n        require(drivers[msg.sender].id > 0, \"you're not a driver\");\n        require(!drivers[msg.sender].available , \"you're already available\");\n        require(drivers[msg.sender].status != 1, \"you are carrying a package\");\n        drivers[msg.sender].available = true;\n        emit DriverRequest(msg.sender);\n    }\n    \n    function signup_to_drive(uint8 lat, uint8 long, uint8 weight, uint8 height, uint8 width, uint8 length) public payable{\n        require((weight > 0) && (height > 0) && (length > 0) && (width > 0) , \"Invalid car dimensions.\");\n        require(drivers[msg.sender].weight_capacity == 0, \"You are already registered to drive!\");\n        Location storage loc;\n        loc.lat = lat;\n        loc.long = long;\n        Driver storage driver;\n        driver.weight_capacity = weight;\n        driver.available = false;\n        driver.height = height;\n        driver.length = length;\n        driver.loc = loc;\n        driver.id = 1;\n        drivers[msg.sender] = driver;\n        emit DriverSignup(msg.sender);\n    }\n    \n    function get_driver_package(address adr) public view returns (address) {\n        require(drivers[adr].id > 0, \"not a driver\");\n        require(drivers[adr].status == 1, \"not carrying\");\n        return drivers[adr].package;\n    }\n    function get_driver_goal_long(address adr) public view returns (int) {\n        require(drivers[adr].id > 0, \"not a driver\");\n        require(drivers[adr].status == 1, \"not carrying\");\n        return shipments[drivers[adr].package].destination.long;\n    }\n    function get_driver_goal_lat(address adr) public view returns (int) {\n        require(drivers[adr].id > 0, \"not a driver\");\n        require(drivers[adr].status == 1, \"not carrying\");\n        return shipments[drivers[adr].package].destination.lat;\n    }\n    \n}\n",
  "sourcePath": "/Users/satchel/Documents/BU/softdev/UB/Blockchain/Janus/Janus-contract/contracts/Shipping.sol",
  "compiler": {
    "name": "solc",
    "version": "0.6.6+commit.6c089d02.Emscripten.clang"
  },
  "schemaVersion": "3.2.5",
  "updatedAt": "2020-12-20T00:13:46.660Z",
  "devdoc": {
    "details": "Implements voting process along with vote delegation",
    "methods": {},
    "title": "Ballot"
  },
  "userdoc": {
    "methods": {}
  }
}